{
  "_format": "hh-sol-artifact-1",
  "contractName": "Voting",
  "sourceName": "contracts/Voting.sol",
  "abi": [
    {
      "anonymous": false,
      "inputs": [
        {
          "indexed": true,
          "internalType": "address",
          "name": "voter",
          "type": "address"
        },
        {
          "indexed": true,
          "internalType": "uint256",
          "name": "candidateId",
          "type": "uint256"
        }
      ],
      "name": "Voted",
      "type": "event"
    },
    {
      "inputs": [
        {
          "internalType": "string",
          "name": "_name",
          "type": "string"
        }
      ],
      "name": "addCandidate",
      "outputs": [],
      "stateMutability": "nonpayable",
      "type": "function"
    },
    {
      "inputs": [
        {
          "internalType": "uint256",
          "name": "",
          "type": "uint256"
        }
      ],
      "name": "candidates",
      "outputs": [
        {
          "internalType": "uint256",
          "name": "id",
          "type": "uint256"
        },
        {
          "internalType": "string",
          "name": "name",
          "type": "string"
        },
        {
          "internalType": "uint256",
          "name": "voteCount",
          "type": "uint256"
        }
      ],
      "stateMutability": "view",
      "type": "function"
    },
    {
      "inputs": [],
      "name": "candidatesCount",
      "outputs": [
        {
          "internalType": "uint256",
          "name": "",
          "type": "uint256"
        }
      ],
      "stateMutability": "view",
      "type": "function"
    },
    {
      "inputs": [
        {
          "internalType": "uint256",
          "name": "_candidateId",
          "type": "uint256"
        }
      ],
      "name": "vote",
      "outputs": [],
      "stateMutability": "nonpayable",
      "type": "function"
    },
    {
      "inputs": [
        {
          "internalType": "address",
          "name": "",
          "type": "address"
        }
      ],
      "name": "voters",
      "outputs": [
        {
          "internalType": "bool",
          "name": "",
          "type": "bool"
        }
      ],
      "stateMutability": "view",
      "type": "function"
    }
  ],
  "bytecode": "0x608060405234801561001057600080fd5b50610c1e806100206000396000f3fe608060405234801561001057600080fd5b50600436106100575760003560e01c80630121b93f1461005c5780632d35a8a2146100785780633477ee2e14610096578063462e91ec146100c8578063a3ec138d146100e4575b600080fd5b61007660048036038101906100719190610457565b610114565b005b6100806102bb565b60405161008d9190610493565b60405180910390f35b6100b060048036038101906100ab9190610457565b6102c1565b6040516100bf9392919061053e565b60405180910390f35b6100e260048036038101906100dd91906106b1565b610373565b005b6100fe60048036038101906100f99190610758565b6103ed565b60405161010b91906107a0565b60405180910390f35b60008111801561012657506002548111155b610165576040517f08c379a000000000000000000000000000000000000000000000000000000000815260040161015c90610807565b60405180910390fd5b600160003373ffffffffffffffffffffffffffffffffffffffff1673ffffffffffffffffffffffffffffffffffffffff16815260200190815260200160002060009054906101000a900460ff16156101f2576040517f08c379a00000000000000000000000000000000000000000000000000000000081526004016101e990610873565b60405180910390fd5b60018060003373ffffffffffffffffffffffffffffffffffffffff1673ffffffffffffffffffffffffffffffffffffffff16815260200190815260200160002060006101000a81548160ff021916908315150217905550600080828152602001908152602001600020600201600081548092919061026f906108c2565b9190505550803373ffffffffffffffffffffffffffffffffffffffff167f4d99b957a2bc29a30ebd96a7be8e68fe50a3c701db28a91436490b7d53870ca460405160405180910390a350565b60025481565b60006020528060005260406000206000915090508060000154908060010180546102ea90610939565b80601f016020809104026020016040519081016040528092919081815260200182805461031690610939565b80156103635780601f1061033857610100808354040283529160200191610363565b820191906000526020600020905b81548152906001019060200180831161034657829003601f168201915b5050505050908060020154905083565b60026000815480929190610386906108c2565b919050555060405180606001604052806002548152602001828152602001600081525060008060025481526020019081526020016000206000820151816000015560208201518160010190816103dc9190610b16565b506040820151816002015590505050565b60016020528060005260406000206000915054906101000a900460ff1681565b6000604051905090565b600080fd5b600080fd5b6000819050919050565b61043481610421565b811461043f57600080fd5b50565b6000813590506104518161042b565b92915050565b60006020828403121561046d5761046c610417565b5b600061047b84828501610442565b91505092915050565b61048d81610421565b82525050565b60006020820190506104a86000830184610484565b92915050565b600081519050919050565b600082825260208201905092915050565b60005b838110156104e85780820151818401526020810190506104cd565b60008484015250505050565b6000601f19601f8301169050919050565b6000610510826104ae565b61051a81856104b9565b935061052a8185602086016104ca565b610533816104f4565b840191505092915050565b60006060820190506105536000830186610484565b81810360208301526105658185610505565b90506105746040830184610484565b949350505050565b600080fd5b600080fd5b7f4e487b7100000000000000000000000000000000000000000000000000000000600052604160045260246000fd5b6105be826104f4565b810181811067ffffffffffffffff821117156105dd576105dc610586565b5b80604052505050565b60006105f061040d565b90506105fc82826105b5565b919050565b600067ffffffffffffffff82111561061c5761061b610586565b5b610625826104f4565b9050602081019050919050565b82818337600083830152505050565b600061065461064f84610601565b6105e6565b9050828152602081018484840111156106705761066f610581565b5b61067b848285610632565b509392505050565b600082601f8301126106985761069761057c565b5b81356106a8848260208601610641565b91505092915050565b6000602082840312156106c7576106c6610417565b5b600082013567ffffffffffffffff8111156106e5576106e461041c565b5b6106f184828501610683565b91505092915050565b600073ffffffffffffffffffffffffffffffffffffffff82169050919050565b6000610725826106fa565b9050919050565b6107358161071a565b811461074057600080fd5b50565b6000813590506107528161072c565b92915050565b60006020828403121561076e5761076d610417565b5b600061077c84828501610743565b91505092915050565b60008115159050919050565b61079a81610785565b82525050565b60006020820190506107b56000830184610791565b92915050565b7f496e76616c69642063616e646964617465000000000000000000000000000000600082015250565b60006107f16011836104b9565b91506107fc826107bb565b602082019050919050565b60006020820190508181036000830152610820816107e4565b9050919050565b7f596f75206861766520616c726561647920766f74656400000000000000000000600082015250565b600061085d6016836104b9565b915061086882610827565b602082019050919050565b6000602082019050818103600083015261088c81610850565b9050919050565b7f4e487b7100000000000000000000000000000000000000000000000000000000600052601160045260246000fd5b60006108cd82610421565b91507fffffffffffffffffffffffffffffffffffffffffffffffffffffffffffffffff82036108ff576108fe610893565b5b600182019050919050565b7f4e487b7100000000000000000000000000000000000000000000000000000000600052602260045260246000fd5b6000600282049050600182168061095157607f821691505b6020821081036109645761096361090a565b5b50919050565b60008190508160005260206000209050919050565b60006020601f8301049050919050565b600082821b905092915050565b6000600883026109cc7fffffffffffffffffffffffffffffffffffffffffffffffffffffffffffffffff8261098f565b6109d6868361098f565b95508019841693508086168417925050509392505050565b6000819050919050565b6000610a13610a0e610a0984610421565b6109ee565b610421565b9050919050565b6000819050919050565b610a2d836109f8565b610a41610a3982610a1a565b84845461099c565b825550505050565b600090565b610a56610a49565b610a61818484610a24565b505050565b5b81811015610a8557610a7a600082610a4e565b600181019050610a67565b5050565b601f821115610aca57610a9b8161096a565b610aa48461097f565b81016020851015610ab3578190505b610ac7610abf8561097f565b830182610a66565b50505b505050565b600082821c905092915050565b6000610aed60001984600802610acf565b1980831691505092915050565b6000610b068383610adc565b9150826002028217905092915050565b610b1f826104ae565b67ffffffffffffffff811115610b3857610b37610586565b5b610b428254610939565b610b4d828285610a89565b600060209050601f831160018114610b805760008415610b6e578287015190505b610b788582610afa565b865550610be0565b601f198416610b8e8661096a565b60005b82811015610bb657848901518255600182019150602085019450602081019050610b91565b86831015610bd35784890151610bcf601f891682610adc565b8355505b6001600288020188555050505b50505050505056fea26469706673582212204df7b153824d6be7beefe9499d5f9be53424594a885c4eac8eedef2340787c0064736f6c63430008120033",
  "linkReferences": {},
  "deployedLinkReferences": {}
}